:020000040800F2
:1000000070220020B9280008A5010008A7010008F7
:10001000AB010008AF010008B301000800000000B8
:10002000000000000000000000000000B701000810
:10003000B901000800000000877C00088902000860
:10004000D3280008D3280008D3280008D3280008A4
:10005000D3280008D3280008D3280008D328000894
:10006000D3280008D3280008D3280008D328000884
:10007000D3280008D3280008D3280008D328000874
:10008000D3280008D3280008D3280008D328000864
:10009000BB010008D3280008D3280008D328000893
:1000A000D3280008D3280008D3280008D328000844
:1000B000D3280008D3280008D3280008D328000834
:1000C000D3280008D3280008D3280008D328000824
:1000D000D32800084B14000875150008D328000821
:1000E000CB010008D3280008D3280008D328000833
:1000F000D3280008D3280008D3280008D3280008F4
:10010000D3280008D3280008D3280008D3280008E3
:10011000D3280008D3280008D3280008D3280008D3
:10012000D3280008D3280008D3280008D3280008C3
:10013000DFF80CD009F008FE004800474501000830
:100140007022002000B58BB000F017FE0AA804F062
:10015000CDFD0AA8032100220592CDE906210890D1
:10016000104680210C220A4BCDE90132CDE9031063
:1001700003200023074A08A10090094806F01FF950
:1001800000F034FE0AA804F0EBFF00200BB000BD25
:10019000FC020020890800085374617274557000D5
:1001A00084020020704700BFFEE700BFFEE700BFEB
:1001B000FEE700BFFEE77047704710B504F0E7FDAB
:1001C00000F02CF904F0F4FD10BD10B504F0DFFDD3
:1001D0004FF4004002F064FC002852D000BF00BF82
:1001E00000BF07F0FDFD044600BF00BF2A480078AD
:1001F000401C2949087000BF00BF204607F0F4FDED
:1002000000BF00BF00BF254800F0F3FE00F0C8FBB0
:1002100001F044FE2249086001F093FE2049486045
:1002200000BF00BF00BF07F0DBFD044600BF00BFFA
:1002300019480078401E1849087008460078A0B98F
:1002400018480088002809DD00BF00BF204607F0DD
:10025000CBFD00BF00BF05F0AEFA0DE000BF00BF50
:10026000204607F0C1FD00BF06E000BF00BF2046EA
:1002700007F0BAFD00BF00BF00BF4FF4004002F01E
:1002800020FC04F095FD10BD10B504F080FD07F0D2
:10029000C6FC04F08DFD10BD1F0200200F010020E0
:1002A0003C0100200002002008B50121042003F0D9
:1002B0000BFA4FF48070ADF8000003208DF80200B7
:1002C00014208DF803006946394802F041FF08BD4B
:1002D00010B5002003F058F90121C80503F001FA18
:1002E00010BD08B50121042003F0EEF94FF4807031
:1002F000ADF8000003208DF8020010208DF80300F7
:1003000069462B4802F024FFFFF7E2FF08BD0320F7
:100310002849086070472848817A19B10521254A83
:10032000116002E00121234A1160704708B54FF4C3
:10033000C06002F0D3FA14208DF8000000208DF880
:1003400001008DF8020001208DF80300684602F0DC
:10035000CAFA08BD10B504462CB14FF48071144898
:1003600002F0A3FF04E04FF48071114802F09FFFF8
:1003700010BD10B5114B18681B1D19681B1D1A689C
:10038000A8B10F4CA070030A2371030CA371030ED4
:100390002372A1720B0A23730B0CA3730B0E23742D
:1003A000A274130A2375130CA375130E237610BDC4
:1003B00000080140F0000020541A0020E8F7FF1F59
:1003C0000000002010B54021124809F0C4F80320B5
:1003D00008F03CFF104908600846006882B24FF4FC
:1003E00088710C4808F0C0FC032008F096FD0A480C
:1003F000006882B2C021074808F09CFC06480068EB
:1004000081B2012008F0D1FE012008F073FD10BD7B
:1004100070470000FC0400201C00002010B51748A5
:100420000068174908800846008800F48060154974
:100430000988084030B14FF6FF3010490860124972
:10044000486880470E48008800F400700D4909880C
:10045000084040B14FF6FF50084908600B4800784B
:10046000401C0A4908700648008800F4004005490D
:100470000988084008B108F073FA10BD445C0040D8
:1004800020000020720200206C00002022000020CA
:1004900010B5FFF76EFF002087490968887200F0E9
:1004A00023F90020854908604FF4064084490880FC
:1004B000084600888149091F0860002081490860BA
:1004C00010BD10B500207C49096888727E48C0794B
:1004D000794909684872002077490968C87208F0AC
:1004E00075FC4FF40071002008F08AFC10210020F8
:1004F00008F09FFC4021002008F02BFE8021002006
:1005000008F01AFE002008F039FD704890F82C1011
:10051000002008F06CFE002008F0FFFC0021012004
:1005200008F06EFCC021012008F006FE2021012009
:1005300008F07FFC0021012008F095FC4FF4C06119
:10054000022008F05DFC4FF48071022008F0F4FDF9
:100550000021022008F087FC2021022008F069FC1D
:100560000021032008F04CFC4FF48871032008F0B0
:10057000F0FD4021032008F03AFE4FF440510320E3
:1005800008F071FC0021032008F053FC002008F063
:100590003DF901204B49086010BD4D48817A11B1E9
:1005A0000521484A11607047042046490860704799
:1005B00048480078202802D100204649087070473A
:1005C0007047014629B908203B4A12681082002072
:1005D00070474148FCE7014629B90820364A1268AD
:1005E0001082002070473C48FCE770B504460025A7
:1005F000212C09D130480068007800F07F002128C4
:1006000010D1AFF22D050DE0202C0BD12A48006847
:10061000007800F07F00212801D1AFF25905202099
:100620002C4908700DB9022070BD2348006885610F
:1006300000212148006841820020A8470020F3E7FC
:1006400001461D480068007800F07F00212807D18E
:10065000022901D100207047222901D10020FAE7A8
:100660000220F8E710B504461C49204607F0B4FD07
:1006700010BD10B504461A49204607F0ADFD10BD67
:1006800070B505460C480068C478042C01DD0020D4
:1006900070BD144800EBC401284607F09DFDF7E744
:1006A0000246002901DD02207047012A01DD0220F7
:1006B000FAE70020F8E7000068020020445C0040F0
:1006C00072020020F0000020CEB200086C00002072
:1006D000541A00205C00002060000020C0000020B0
:1006E000C8000020D000002010B50120FFF732FE26
:1006F00001244C48046000204B49088008460088CB
:10070000484908600020091D08604FF4E050464940
:1007100008800846008843490860002010BD10B5D5
:100720000120404908600020091D0860FFF712FE03
:1007300003203C490860002010BD10B5394800680E
:1007400084B244F0080437480460006884B244F07E
:10075000040434480460FFF7DAFD10BD10B53148D9
:10076000006884B224F004042E480460FFF7D3FD2F
:100770004FF406402B49086010BD70B50546072DA3
:1007800001D02A48057029480078082841D2DFE8BE
:1007900000F0040A1016212E4142FFF7DFFF062069
:1007A000224908703BE0FFF7D9FF04201F49087079
:1007B00035E002201D494870032008702FE01B48D7
:1007C0004078401E194948700846407808B904200E
:1007D000087024E01348006884B244F01004114803
:1007E00004600520114908700A20487017E00F487E
:1007F0004078401E0D4948700846407840B9094885
:10080000006884B224F010040648046006200870D2
:1008100005E000BF00BF06200449087000BF00BF0C
:1008200070BD0000405C004072020020F500002016
:100830000EB51BE04FF400414D4802F038FD02A810
:10084000002105230A46CDE90010084606F0EFFF17
:100850004FF40041464802F028FD02A8002105237C
:100860000A46CDE90010084606F0E1FFE2E70EB5C2
:1008700009E002A800214FF4FA730A46CDE90010FE
:10088000084606F0D4FFF4E710B58AB0044609A87C
:10089000032100220592CDE906210890104680210F
:1008A0000C22344BCDE90132CDE9031004200023A2
:1008B000AFF2450230A10090314805F080FD09A853
:1008C000032100220592CDE90621089010468021DF
:1008D0000C222C4BCDE90132CDE903100520002379
:1008E000AFF2B30228A10090294805F068FD00F09E
:1008F000DDF809A800210B460122CDE900100846C9
:1009000006F095FF00F0BBF809A800210B46012274
:10091000CDE90010084606F08AFF1E4800F069FB8A
:1009200001F0BCFA1C49086001F00BFB1A49486051
:1009300000F0CFF809A800210B460122CDE90010F4
:10094000084606F074FF00F048F909A800210B469C
:100950000122CDE90010084606F069FF012000F0F1
:10096000B3FA09A90D4805F056FE0AB010BD000003
:10097000000C0140B80500204C4544310000000047
:1009800040050020300800204C45443200000000A3
:10099000B80700200F0100203C0100208402002045
:1009A0001CB5D0480078A0B3CF488078CF4901EB80
:1009B000101000788DF80500CB48807800F00F000B
:1009C000085C00F0FE008DF80400C748407801EB99
:1009D000101000788DF80300C348407800F00F0035
:1009E000085C00F0FE008DF80200BF48007801EBC3
:1009F000101000788DF80100BB48007800F00F005F
:100A0000085C8DF80000B7480078C043B54908700D
:100A100030E0FFE7B4488078B44901EB101000786B
:100A20008DF80500B048807800F00F00085C8DF864
:100A30000400AD48407801EB101000788DF80300F9
:100A4000A948407800F00F00085C8DF80200A64825
:100A5000007801EB101000788DF80100A2480078B2
:100A600000F00F00085C8DF800009E480078C0433D
:100A70009C4908700621684601F086FE1CBD1CB525
:100A800091208DF8050061208DF80400E3208DF899
:100A900003008DF8020003208DF80100FE208DF880
:100AA00000000621684601F06FFE1CBD1CB5002049
:100AB0008DF805008DF804008DF803008DF8020014
:100AC0008DF801008DF800000621684601F05CFEFB
:100AD0001CBD2DE9FF5F0024A1460120019084493F
:100AE0000868002109F000F81FD88149086808F05B
:100AF0007BFF44B27E49086808F076FF009008F05A
:100B000047FF83467A480168584608F084FD8246CC
:100B100008F0BBFF07460022764B08F058FE05465A
:100B200008F07BFF4FFA80F923E04FF0FF3001908F
:100B30006F49086808F058FF404244B26C490868A1
:100B400008F052FF009008F023FF834668480168D0
:100B5000584608F060FD824608F097FF05460022DF
:100B6000644B08F034FE074608F057FF40424FFA46
:100B700080F973208DF80D000198002803DDFF2017
:100B80008DF80C0002E0FD208DF80C000A2094FB8B
:100B9000F0F05649085C8DF80B000A2094FBF0F148
:100BA00000FB11405149085C00F0FE008DF80A007E
:100BB0000A2099FBF0F0085C8DF809000A2099FBE7
:100BC000F0F100FB11904949085C8DF808000621FE
:100BD00002A801F0D9FDBDE8FF9F2DE9FF5F0024C9
:100BE000A1460120019042494868002108F07CFF9D
:100BF0001FD83F49486808F0F7FE44B23C494868AE
:100C000008F0F2FE009008F0C3FE834638484168C1
:100C1000584608F000FD824608F037FF07460022DC
:100C2000344B08F0D4FD054608F0F7FE4FFA80F982
:100C300023E04FF0FF3001902D49486808F0D4FEC2
:100C4000404244B22A49486808F0CEFE009008F0BD
:100C50009FFE834626484168584608F0DCFC8246E1
:100C600008F013FF05460022224B08F0B0FD0746AE
:100C700008F0D3FE40424FFA80F991208DF80D0024
:100C80000198002803DDFF208DF80C0002E0FD2014
:100C90008DF80C000A2094FBF0F01449085C8DF8E4
:100CA0000B000A2094FBF0F100FB11400F49085C97
:100CB00000F0FE008DF80A000A2099FBF0F0085CB5
:100CC0008DF809000A2099FBF0F100FB119007490B
:100CD000085C8DF80800062102A801F055FDBDE86A
:100CE000FF9F0000010100200F010020F7000020FD
:100CF0003C0100200000594008B54FF4A06001F00D
:100D0000EDFD14208DF8000000208DF801008DF815
:100D1000020001208DF80300684601F0E4FD252063
:100D20008DF8000000208DF8010001208DF80200F0
:100D30008DF80300684601F0D6FD26208DF80000EE
:100D400000208DF8010002208DF8020001208DF8AE
:100D50000300684601F0C7FD28208DF80000002040
:100D60008DF8010003208DF8020001208DF80300AA
:100D7000684601F0B8FD08BD704710B5012080F34A
:100D8000108800BFFFF7B8FF00F020FB00F0B6FBB3
:100D9000FFF7A7FA07F0C6FD01F0DDFB01F088FCC4
:100DA00001F02CF801F02EF900F02FFC00F070F8A3
:100DB00001F065F800F0DCF80A4800F01AF901F0DB
:100DC000F7FC012001F04CFD8021074802F06DFA8C
:100DD000642001F001FDFFF7CFFF002080F31088B1
:100DE00000BF10BD0F0100200008014030B52448AD
:100DF00000684FF47A72B0FBF2F1B1F1807F01D359
:100E000001201DE021F07F40401E4FF0E0225061A4
:100E100050170F22002807DA13071D0E194B00F098
:100E20000F04241F1D5503E013071C0E164B1C5402
:100E300000BF00204FF0E0229061072010610020E9
:100E400008B100BFFEE730BD01B510490098086049
:100E50004FF0E020006940F001004FF0E021086110
:100E600000BF0A4800680028FBD108BD0748006899
:100E700020B106480068401E044908607047000021
:100E8000D801002018ED00E000E400E0040100209B
:100E900008B50121082002F017FC4FF44040ADF8DE
:100EA000000010208DF8030003208DF80200694631
:100EB000044802F04DF94FF44041024802F0F5F9C0
:100EC00008BD0000000C01401CB504460F210020A5
:100ED00002F054FA4FF40040009000208DF8040016
:100EE0000C208DF805008DF80640684601F072FD73
:100EF0001CBD08B50121052002F0E6FB4FF40040BF
:100F0000ADF8000048208DF803006946674802F0FC
:100F10001FF90020FFF7D8FF08BD10B5D02000F062
:100F200042FA10BD1CB500200190802000900120E5
:100F30000190D02301220E2101A800F0A3F9D023B3
:100F400001220721684600F09DF9D02301220821E3
:100F5000684600F097F9D02301220921684600F085
:100F600091F9D02301220A21684600F08BF91CBDBB
:100F700010B50121084602F0A7FB01214C4802F000
:100F8000B8F9FFF7CAFFFFF7B4FFFFF7CBFF10BDBB
:100F90007CB50446002000900190002520788DF853
:100FA000000060788DF80100A0788DF80200E078EC
:100FB0008DF8030020798DF8040060798DF8050024
:100FC000A0798DF8060010E0681CC5B2D023072276
:100FD0000021684600F056F9012803D135A008F039
:100FE00041FF04E036A008F03DFF052DECDB00BF1B
:100FF0007CBD1CB50446002000900190D023072240
:101000000021684600F07EF9012814D19DF8000007
:1010100020709DF8010060709DF80200A0709DF89E
:101020000300E0709DF8040020719DF805006071D8
:101030009DF80600A0711CBD38B50446D0230122DE
:101040002146684600F05EF99DF8000038BD13B5F2
:101050000446D0230122214601A800F013F90128FB
:1010600000D11CBD0020FCE710B586B0142101A8FA
:1010700008F071FA0024D0231322002101A800F007
:1010800041F901280CD100BF07E001A8025D21460B
:101090000FA008F0E7FE601CC4B2132CF5DB02E0E1
:1010A0000FA008F0DFFE06B010BD000000080140F0
:1010B000000230005772697465204F4B0D0A000022
:1010C0005772697465204661696C6564210D0A0078
:1010D000526567307825783A307825780D0A000017
:1010E00052656164206661696C6564210D0A0000C7
:1010F000002001E0411CC8B20A28FBDB704710B594
:101100004021B14802F0D1F88021AF4802F0CDF87B
:10111000FFF7EEFF4021AC4802F0C9F8FFF7E8FF07
:101120008021A94802F0C3F8FFF7E2FF10BD10B517
:101130004021A54802F0BBF88021A34802F0B5F891
:10114000FFF7D6FF4021A04802F0AFF8FFF7D0FF2D
:1011500010BD70B50446002523E004F0800020B1E6
:101160004021994802F0A1F803E04021964802F09E
:101170009EF8FFF7BDFF8021934802F096F8FFF735
:10118000B7FF8021904802F092F8072D03D140214B
:101190008D4802F08AF86006040EFFF7A9FF681C6C
:1011A000C5B2082DD9DBFFF7A3FF70BD70B50024D1
:1011B000002516E06006040E8021834802F075F8D1
:1011C000FFF796FF4021804802F055F808B1601CF7
:1011D000C4B280217C4802F06AF8FFF789FF681CDE
:1011E000C5B2082DE6DBFFF783FF204670BD10B5C2
:1011F0004021754802F059F8FFF77AFF80217248C4
:1012000002F053F8FFF774FF40216F4802F033F803
:1012100008B1012400E0002480216B4802F047F867
:10122000FFF766FF204610BD10B54021664802F06A
:101230003EF8FFF75DFF8021634802F036F8FFF7C4
:1012400057FF8021604802F032F8FFF751FF40213C
:101250005D4802F02AF8FFF74BFF10BD10B54021A2
:10126000594802F022F8FFF743FF8021564802F068
:101270001CF8FFF73DFF8021534802F018F8FFF7F4
:1012800037FF10BD2DE9F0470746884691461D46B9
:10129000C24600242BE0ECB9FFF749FF00260AE024
:1012A000FFF72DFFE8B2FFF754FFFFF7A0FF00B9EB
:1012B00003E0701C86B2642EF2DB00BFB6F57A7FC5
:1012C00000D11BE00AF0FF00FFF743FFFFF78FFF9D
:1012D00000B113E0385DFFF73CFFFFF788FF00B176
:1012E0000CE00AF101001FFA80FA601C84B24C4540
:1012F000D1DBFFF71CFF0120BDE8F087FFF717FFE8
:101300000020F9E72DE9F0410746884616461D46BC
:10131000FFF7F5FEE8B2FFF71CFFFFF768FF00B12B
:1013200028E008F0FF00FFF714FFFFF760FF00B1AF
:1013300020E0FFF7E4FEE9B241F00100FFF709FF0A
:10134000FFF755FF00B115E000240CE0FFF72EFF7A
:101350003855701EA04202D0FFF766FF01E0FFF78C
:101360007DFF601C84B2B442F0DBFFF7E0FE012099
:10137000BDE8F081FFF7DBFE0020F9E708B50121A9
:10138000082002F0A1F9C020ADF8000003208DF87C
:10139000020014208DF8030069460B4801F0D8FEC6
:1013A000FFF7C5FE08BD70B50446FFF7E7FFFFF77E
:1013B000A6FE2046FFF7CDFEFFF719FF0546FFF713
:1013C000B6FE284670BD0000000C014000B585B097
:1013D000012144F2040002F077F94FF40070ADF8F7
:1013E000100018208DF8130003208DF8120004A9B6
:1013F000404801F0ADFE4FF48060ADF810000420CD
:101400008DF8130004A93B4801F0A2FE4FF4E1302F
:1014100000900020ADF80400ADF80600ADF808001B
:10142000ADF80C000C20ADF80A006946324803F014
:1014300000F9012240F225512F4803F092F90121D1
:101440002D4803F082F905B000BD10B503F09FFCF4
:1014500040F22551284803F069FA18B1264803F0F4
:10146000E5F9C4B203F0A4FC10BD70B504460D4606
:10147000E1B2214803F0D6F900BF40211E4803F035
:101480003FFA0028F9D0204670BD10B5044600BFD1
:101490002021194803F034FA0028F9D0164803F047
:1014A000C5F910BD70B504460D462946204603F027
:1014B000B9F900BF4021204603F022FA0028F9D0F4
:1014C00070BD2DE9F04107460D461646002400BFC9
:1014D0000CE0295D384603F0A5F900BF40213846ED
:1014E00003F00EFA0028F9D0601C84B2B442F0DB9D
:1014F000BDE8F081000801400038014000B585B02A
:101500000121284802F0EDF80420ADF81000182061
:101510008DF8130003208DF8120004A9224801F071
:1015200017FE0820ADF8100004208DF8130004A960
:101530001D4801F00DFE4FF4E13000900020ADF8A1
:101540000400ADF80600ADF80800ADF80C000C2062
:10155000ADF80A006946154803F06BF8012240F225
:101560002551124803F0FDF80121104803F0EDF871
:1015700005B000BD10B503F00AFC40F225510B4840
:1015800003F0D4F958B1094803F050F9C4B208483F
:1015900001780078401C064A10700648445403F055
:1015A00007FC10BD04000200000801400044004098
:1015B0001D010020300A0020002105E000E0491C48
:1015C000394A9142FBD3401E0028F7D170472DE9DC
:1015D000F0470446642C01DDBDE8F087204608F0A2
:1015E000E0F98246314908F019F8814608F04DFAD1
:1015F000074600222E4B08F05CF9054608F02CFA4D
:10160000C0B22C49088000BFE6E700B589B00121CF
:10161000022002F066F80121042002F055F8402073
:10162000ADF8200018208DF8230003208DF822004B
:1016300008A9214801F08CFD40F6B730ADF818003C
:101640000820ADF814000020ADF81A00ADF816001F
:1016500005A91848343802F06FF96020ADF804008D
:101660000120ADF8060040F2DB50ADF80A00002082
:10167000ADF80C0001A90F48343802F09AF908219E
:101680000C48343802F0E4FD01210A48343802F0F5
:10169000AFFD0020FFF79BFF01210648343802F020
:1016A000A7FC09B000BD0000FFFF010000703B4532
:1016B0000000594034040040000801402DE9F84F73
:1016C000FE4800904FF0000A31E0504608F06EF9F5
:1016D00006460022FA4B08F0ECF8044608F0E8F958
:1016E0008346009808F0D1F906460F46584608F0A0
:1016F000CCF9804632463B4609F07EF8044608F0B5
:10170000D7F98346584608F0C0F906460022EC4B4C
:1017100008F05DF804460022EA4B07F0B1FF80466E
:1017200008F09AF9E84901F80A000AF1010ABAF149
:10173000FF0FCADDBDE8F88F0220E449086000BF52
:1017400000BF00BF00BF00BF00BF00BF00BF00BFA1
:1017500000BF00BF00BF00BF00BF00BF00BF00BF91
:1017600000BF00BF00BF0220D849091D086000BFAC
:1017700000BF00BF00BF00BF00BF00BF00BF00BF71
:1017800000BF00BF00BF00BF00BF00BF00BF00BF61
:1017900000BF00BF00BF00BF00BF00BF00BF00BF51
:1017A00000BF00BF00BF00BF00BF00BF00BF00BF41
:1017B00000BF00BF00BF00BF00BF70470220C34989
:1017C000086000BF00BF00BF00BF00BF00BF00BF78
:1017D00000BF00BF00BF00BF00BF00BF00BF00BF11
:1017E00000BF00BF00BF00BF00BF00BF00BF00BF01
:1017F00000BF00BF00BF00BF00BF00BF00BF00BFF1
:1018000000BF00BF00BF00BF00BF00BF00BF02207D
:10181000AE49091D086000BF00BF00BF00BF00BF88
:10182000704700B50346002200BF0AE08020104147
:10183000184010B1FFF7C2FF01E0FFF77DFF501C19
:10184000C2B2082AF2DB00BD2DE9F0474FF00009D3
:101850001CE0002416E009EB49019D4A1144095D92
:10186000994A505C08F0B3F807469A4A9A4B07F039
:10187000AEFF054608F0F0F800F0FF0A5046FFF70B
:10188000D0FF641C032CE6D309F10109B9F1060F5E
:10189000DFD3BDE8F08710B5034603EB43008C4C63
:1018A00020444254104610BD10B500EB40038B4C51
:1018B00023445A5410BD2DE9FC4782460AEB4A01E5
:1018C000864A505C08F083F806460F46844951F872
:1018D0002A0008F0DAF8CDE9000109F079FC804629
:1018E00032463B4607F073FF044608F0B5F80AEBB2
:1018F0004A01774A50540AEB4A01784A1144487821
:1019000008F065F804460D46754951F82A0008F0BC
:10191000BCF8064609F05CFC22462B46CDE90001E6
:1019200007F055FF804608F097F80AEB4A01684A2D
:10193000114448700AEB4A01684A1144887808F05B
:1019400046F804460D46664951F82A0008F09DF80D
:10195000804609F03DFC064622462B4607F037FF3D
:10196000CDE9000108F078F80AEB4A01584A114421
:1019700088705B4951F82A0008F087F80646594AF2
:10198000594B07F07DFE044608F092F8544941F89F
:101990002A00BDE8FC875549095C062979D2DFE8B1
:1019A00001F0031B3348607900EB4001484A1144C1
:1019B0008978491C00EB4002454B1A44917000EBBA
:1019C00040011A4611448978FF2904DB4749095C24
:1019D000491C464A11548CE000EB40013C4A11443A
:1019E0004978491E00EB4002394B1A44517000EB14
:1019F00040011A4611444978002904DC3B49095C3E
:101A0000491C3A4A115474E000EB4001304A515CE1
:101A1000491C00EB40022E4B995400EB40011A4642
:101A2000515CFF2904DB3149095C491C2F4A1154E0
:101A30005FE000EB4001264A11448978491E00EB23
:101A40004002234B1A44917000EB40011A461144A6
:101A50008978002904DC2549095C491C234A115472
:101A600047E000EB40011A4A11444978491C00EB59
:101A70004002174B1A44517000EB40011A461144C2
:101A80004978FF2904DB1949095C491C174A11549C
:101A90002FE02DE000EB40010D4A515C491E00EBA8
:101AA00040020B4B995400EB40011A46515C00294F
:101AB00002DC00210D4A11541BE000003333333F98
:101AC000000070400000E03F300B0020100C01408F
:101AD000300C00209A9999999999C93F420C00209D
:101AE000540C00204AD8124DFB21993F25010020BB
:101AF00000BF00BF704710B50024CB480079002814
:101B000072D1C948C078022809D100BF04E020463C
:101B1000FFF741FF601CC4B2062CF8DB2BE1C24882
:101B2000C07840B9002404E02046FFF7C4FE601CE2
:101B3000C4B2062CF8DBBC48C0780128EED1BB4803
:101B40000078072879D2DFE800F0042C5079A1C48E
:101B5000EC00B7484078401CB54948700846007909
:101B6000401CC1B2B2480171C079401CC1B2B0483A
:101B7000C171807A401CC1B2AD488172407B401C6B
:101B8000C1B2AB484173007C401CC1B2A84801748B
:101B90004078FF2804DBA5480078401CA349087062
:101BA000E6E0A3480078401CA14908700846C078C8
:101BB000401CC87008468079401C88710846407AED
:101BC000401C48720846007B401C08730846C07BD6
:101BD000401CC8730846C07BFF2804DB934800788C
:101BE000401C92490870C3E0C3E091484078401E11
:101BF0008F49487008460079401EC1B28C48017177
:101C0000C079401EC1B28A48C171807A401EC1B2FB
:101C100087488172407B401EC1B285484173007C79
:101C2000401EC1B282480174007C002804DC7F4859
:101C30000078401C7D4908709AE098E07C488078E4
:101C4000401C7B49887008464079401CC1B27848E6
:101C50004171007A401CC1B275480172C07A401CC3
:101C6000C1B27348C172807B401CC1B2704881739D
:101C7000407C401CC1B26E484174407CFF2804DBAC
:101C80006A480078401C6949087071E0684800782B
:101C9000401E674908700846C078401EC870084654
:101CA0008079401E88710846407A401E4872084676
:101CB000007B401E08730846C07B401EC873084660
:101CC000C07B002804DC59480078401C5749087044
:101CD0004EE057484078401C554948700846007906
:101CE000401CC1B252480171C079401CC1B2504879
:101CF000C171807A401CC1B24D488172407B401C4A
:101D0000C1B24B484173007C401CC1B248480174C9
:101D1000007CFF2804DB45480078401C43490870DC
:101D200026E043488078401E414988700846407943
:101D3000401EC1B23E484171007A401EC1B23C48CB
:101D40000172C07A401EC1B23948C172807B401E08
:101D5000C1B237488173407C401EC1B234484174DF
:101D6000407C002802DC01203049087000E000BF00
:101D700001E02D4800792C480079022806D1122173
:101D80002B4807F0E8FB002028490870FFF75CFDAE
:101D900010BD2DE9F04106460F469046002500246F
:101DA0001221234807F0D7FB00BF21E000241BE0ED
:101DB00024B1012C08D0022C13D10BE005EB450017
:101DC0001B49084407550CE005EB45001849084439
:101DD000065506E005EB45001549084400F8048067
:101DE00000BF00BF601CC4B2032CE1DB681CC5B29D
:101DF000062DDBDBFFF728FDBDE8F08108B50121EA
:101E0000082001F061FC0220ADF8000010208DF8E0
:101E1000030003208DF802006946064801F098F996
:101E2000FFF74CFC08BD0000200100203801002015
:101E3000300C0020000C01400021002200BF07E010
:101E4000002200E0521C40F6FF739A42FADB491C64
:101E50008142F5DB704710B50024FFF750F9802070
:101E6000FFF777F9FFF7C3F90446FE20FFF771F992
:101E7000FFF7BDF90446FFF75AF9204610BD10B52B
:101E80008020FFF790FA8020FFF78DFA18B9FFF74E
:101E9000E2FF044600E00124204610BD2DE9F04F8A
:101EA00087B04FF0000AFFF72AF98020FFF751F9B9
:101EB000FFF79DF98346F320FFF74BF9FFF797F9FA
:101EC000834600BF0120FFF7B7FFFFF718F9812015
:101ED000FFF73FF90AF101001FFA80FAFFF787F9CF
:101EE0008346BAF1640F00D102E0BBF1000FE9D1E3
:101EF00000BFFFF75BF90546FFF758F90646FFF705
:101F000055F9FFF714F946EA052929F0030948466F
:101F100007F047FD019007F0B8FD334A334BCDE998
:101F2000020107F054FC324A324BCDE9040107F0BC
:101F300048FC074607F0BCFD0446204607B0BDE854
:101F4000F08F2DE9F04F87B04FF0000AFFF7D7F878
:101F50008020FFF7FEF8FFF74AF98346F520FFF7E8
:101F6000F8F8FFF744F9834600BF0120FFF764FF4C
:101F7000FFF7C5F88120FFF7ECF80AF101001FFA1E
:101F800080FAFFF734F98346BAF1640F00D102E01A
:101F9000BBF1000FE9D100BFFFF708F90546FFF7D5
:101FA00005F90646FFF702F9FFF7C1F846EA0529E9
:101FB00029F00309484607F0F4FC019007F065FD9D
:101FC0000D4A0E4BCDE9020107F001FC00220C4B3B
:101FD000CDE9040107F0F5FB074607F069FD04466B
:101FE000204607B0BDE8F08F619FC6DE07F7653F6A
:101FF000CDCCCCCCCC6C47407644CF7701405F3F12
:102000000000184008B50121042001F05DFB1020FC
:10201000ADF800008DF8030003208DF8020069463A
:10202000634801F095F808BD10206149103108603F
:1020300000BF00BF00BF00BF00BF00BF00BF00BFA8
:1020400000BF00BF00BF00BF00BF00BF00BF00BF98
:1020500000BF00BF00BF00BF102055491431086009
:1020600000BF00BF00BF00BF00BF00BF00BF00BF78
:1020700000BF00BF00BF00BF00BF00BF00BF00BF68
:1020800000BF00BF00BF00BF00BF00BF00BF00BF58
:1020900000BF00BF00BF00BF00BF00BF00BF00BF48
:1020A00000BF00BF00BF00BF00BF00BF70471020CF
:1020B0003F491031086000BF00BF00BF00BF00BF34
:1020C00000BF00BF00BF00BF00BF00BF00BF00BF18
:1020D00000BF00BF00BF00BF00BF00BF00BF00BF08
:1020E00000BF00BF00BF00BF00BF00BF00BF00BFF8
:1020F00000BF00BF00BF00BF00BF00BF00BF00BFE8
:1021000000BF10202A491431086000BF00BF00BF83
:1021100000BF00BF704700B50346002200BF0AE0C1
:1021200080201041184010B1FFF7C1FF01E0FFF718
:102130007BFF501CC2B2082AF2DB00BD30B500257F
:102140000CE0002407E005EB45011A4A1144085D44
:10215000FFF7E1FF641C032CF5D36D1C022DF0D3B7
:1021600030BD30B50024002500BF17E0002511E088
:102170001148007830B1FF2004EB44010D4A1144AE
:10218000485505E0002004EB44010A4A1144485533
:10219000681CC5B2032DEBDB601CC4B2022CE5DB6E
:1021A00005480078C04304490870FFF7C7FF30BDF9
:1021B00000080140440100204A0100200346062196
:1021C0000622F8480188F8480288ABB1012B1BD1E0
:1021D0003AB94EF6EE60814201D1002070470120ED
:1021E000FCE739B94EF6EE60824201D10120F5E7F5
:1021F0000020F3E7AB20F1E709B90020EEE70AB9C8
:102200000120EBE7AB20E9E70020E7E770B5042603
:1022100000240120FFF7D2FF0446AB2C06D1E14891
:1022200000EB8420E1490860AB2070BDDD4800EB85
:102230008420DE490860601CDA49891E01EB802594
:102240000CE0DA4800680068401C10B904263046EB
:10225000EBE7D6480068001DD4490860D348006801
:10226000A842EED38020E0E710B50424CD4800F06A
:1022700095FC0446042C01D0204610BD0021C9481D
:1022800000F08FFD0446042C01D02046F5E7C64837
:1022900000F084FC04462046EFE72DE9F0410446B7
:1022A0000F4604250026DFF808830120FFF786FF8C
:1022B0000646AB2E01D1BDE8F081701CB949891EDC
:1022C00001EB802821E0B94800680068401CB8B9DB
:1022D0003946B648006800F064FD0546042D01D07B
:1022E0002846E8E72146B1480068801C00F059FD07
:1022F0000546AE480068001DAC4908602846DAE78C
:10230000AA480068001DA9490860A848006840451F
:10231000D9D38020CFE72DE9F04706460F460025A8
:1023200045F255584FF001099E4CA2460020FFF798
:1023300045FF0546AB2D01D1BDE8F087994800EB7C
:10234000852A9A480068841E0AE0B4F80080B045E7
:1023500005D134F8020C38804FF0000904E0241F46
:102360000AF102008442F0D800BF4846E4E72DE9B4
:10237000F0474FF0060A062600250027A8464FF032
:10238000FF398848B0F800A087480688BAF10000F5
:1023900075D0A0F56E40EE3858B3A0F588501138CE
:1023A00000286DD146B97F4800F0F8FB0446042CA4
:1023B0001ED02046BDE8F0874EF6EE60864210D172
:1023C000784800F0EBFB0446042C01D02046F1E7EE
:1023D0000021754800F0E5FC0446042C08D0204696
:1023E000E8E7FFF741FF0446042C01D02046E1E76F
:1023F000AEE07EBB002522E06A48C0886D4931F816
:102400001510884201D10FFA85F94D4515D069495B
:1024100031F815006849FFF77EFF8046B8F1010FDB
:102420000BD0644931F8150063490988FFF735FF7F
:102430000746042F01D03846BCE7681C85B2392D09
:10244000DADB0021574800F0ACFC0446042C02D033
:102450002046AFE707E0544800F0A0FB0446042CF8
:102460001FD02046A6E74FF6FF70864212D14E4895
:1024700000F094FB0446042C03D020469AE711E0B8
:102480005EE00021474800F08CFC0446042C08D094
:1024900020468FE7FFF7E8FE0446042C01D02046D3
:1024A00088E755E036B9FFF7DFFE0446042C46D036
:1024B00020467FE74FF6FF70864207D13A4800F08A
:1024C0006DFB0446042C3AD0204673E7002523E038
:1024D0003548801D0088374931F81510884201D1F0
:1024E0000FFA85F94D4515D0324931F815003249BA
:1024F000FFF711FF8046B8F1010F0BD02D4931F8DD
:1025000015002D490988FFF7C8FE0746042F01D0A2
:1025100038464FE7681C85B2392DD9DB00212248A7
:1025200000F03FFC0446042C01D0204642E71D4841
:1025300000F034FB0446042C01D020463AE707E0C3
:10254000FFF792FE0446042C01D0204632E700BF7C
:1025500000BF04202EE710B500F0DBFAFFF707FFFD
:102560000446FFF753FE204610BD2DE9F84F0746FD
:1025700089460425DFF830A0AAF1010A0948009035
:102580004FF00008002400264FF0000B0020FFF75A
:1025900015FE8046B8F1010F10D1DFF808A00248FF
:1025A000009016E00000010800040108C0010020AE
:1025B000FF0701084C010020BE010020B8F1000F08
:1025C00004D1DFF8C4A03148009002E0AB20BDE8A0
:1025D000F88F4EF6EE61504600F0E3FB0546042D01
:1025E00001D02846F3E7FFF711FE49463846FFF7CA
:1025F00054FE0646042E01D03046E8E700241CE0D5
:10260000234830F81400B84215D0214931F814009D
:102610002049FFF780FE8346BBF1010F0BD01C4918
:1026200031F814001B490988FFF737FE0646042ECF
:1026300001D03046CBE7601C84B2392CE0DB009837
:1026400000F0ACFA0546042D01D02846BFE7002172
:10265000504600F0A6FB0546042D01D02846B6E7FB
:102660002846B4E770B505460E4600243146284694
:10267000FFF713FE0446802C04D131462846FFF7AD
:1026800074FF0446204670BD0004010800000108E4
:102690004C010020BE010020002100BF05E000E049
:1026A000401E0028FCD14A1CD1B21F29F7DB70471D
:1026B00008B50121082001F007F80820ADF8000056
:1026C00003208DF8020010208DF80300694637487A
:1026D00000F03EFD1020ADF8000003208DF8020050
:1026E00010208DF803006946304800F031FD2020AD
:1026F000ADF8000003208DF8020010208DF80300D3
:1027000069462A4800F024FD0821284800F0CFFD42
:102710001021264800F0CBFD2021244800F0C7FD01
:1027200008BD70B504462546002619E010211F4853
:1027300000F0BDFD05F0010020B108211B4800F0AC
:10274000B4FD03E00821194800F0B1FD102117483D
:1027500000F0ABFD6D100120FFF79EFF701CC6B2AC
:10276000082EE3DB70BD10B52021104800F09FFD5E
:1027700020210E4800F099FD0120FFF78DFF202158
:102780000A4800F094FD10BD70B505460E460024C1
:1027900004E0285DFFF7C5FF601CC4B2B442F8DB5B
:1027A0000120FFF779FFFFF7DEFF70BD000C01404D
:1027B00008B50121042000F087FF8020ADF800005B
:1027C00003208DF8020010208DF8030069461048A0
:1027D00000F0BEFC08BD704770B505460024642DAE
:1027E00000DD70BD0EE0FF2004EB4401094A5054A7
:1027F000FE2004EB44011144487004EB44011144F1
:102800008870641C022CEEDBFFF798FC00BFE8E741
:102810000008014044010020254800BF011EA0F12E
:102820000100FBD1704710B50446012C04D1810290
:10283000204800F03AFD04E04FF480611D4800F0AC
:1028400036FD10BD10B54FF400611A4800F02FFDA1
:10285000FFF7E2FF4FF40061164800F026FD10BDBF
:1028600038B504460121082000F02EFF4FF48060A7
:10287000ADF8000003208DF8020010208DF8030051
:1028800069460C4800F064FC4FF40060ADF80000AD
:1028900003208DF8020010208DF8030069460548DA
:1028A00000F056FC2046FFF7BEFFFFF7CBFF38BD18
:1028B000FFFF0700000C014006488047064800471C
:1028C000FEE7FEE7FEE7FEE7FEE7FEE7FEE7FEE7E0
:1028D000FEE7FEE7934A0008310100083149014351
:1028E000314A1160704770B5002100230F22C4786F
:1028F00004B32D4C246804F4E064C4F5E064210AB8
:10290000C1F10403CA40447804FA03F18478144006
:1029100021430901254C0678A155047804F01F05D0
:102920000124AC4005786D11AD0005F1E025C5F836
:10293000004109E0047804F01F050124AC401C4D5F
:102940000678761145F8264070BD1A4A0A400243BF
:10295000154B1B1F1A60704739B1134A121D1268BC
:102960000243114B1B1D1A6006E00F4A121D12682C
:1029700082430D4B1B1D1A607047042808D14FF08D
:10298000E021096941F004014FF0E022116107E004
:102990004FF0E021096921F004014FF0E0221161BC
:1029A000704700000000FA050CED00E000E400E0D4
:1029B00080E100E080FFFF1F002044490860091DFE
:1029C0000860091D0860091D086041483F4914312D
:1029D0000860704700213D498279002A3AD00A46B2
:1029E000126803689A430B461A600A1D126803684E
:1029F0009A430B1D1A60027911440A6803681A434E
:102A00000A60324A0832126803689A432F4B08332F
:102A10001A601A1D126803689A432C4B0C331A6013
:102A20004279102A0ED11A1F126803681A43274BE5
:102A300008331A601A1D126803681A43234B0C33BB
:102A40001A600DE02149427911440A6803681A436B
:102A50000A6005E0027911440A6803689A430A6033
:102A600070470021016001710C21417100218171C9
:102A700070471649103109680143144A1032116039
:102A8000704701460020114A143212680A400AB108
:102A9000012000E0002070470C49143108607047A5
:102AA000014600200022094B1B6803EA0102074B84
:102AB00014331B680B4013B10AB1012000E0002061
:102AC000704702491431086070470000000401405B
:102AD000FFFF0F0001460020FE4A106800F038009A
:102AE000084310607047FB49096821F00801F94A62
:102AF000116011460968014311607047F549096882
:102B000021F01001F34A1160114609680143116078
:102B10007047F148EF494860F04848607047EE4818
:102B2000EC494860ED4848607047EA48006940F069
:102B30008000E84908617047E648006940F080007D
:102B4000E449086170470420E249C96801F00101C5
:102B500009B101200EE0DF49C96801F0040109B1A3
:102B6000022007E0DB49C96801F0100109B1032028
:102B700000E00420704700B502460423FFF7E3FF9E
:102B8000034603E0FFF7DFFF0346521E012B01D18E
:102B9000002AF7D102B90523184600BD30B5044616
:102BA00004254FF43020FFF7E6FF0546042D17D12A
:102BB000C848006940F00200C649086108464461FF
:102BC000006940F0400008614FF43020FFF7D3FF68
:102BD0000546C048006941F6FD710840BD490861DD
:102BE000284630BD10B504244FF43020FFF7C3FF52
:102BF0000446042C16D1B748006940F00400B549DA
:102C000008610846006940F0400008614FF4302038
:102C1000FFF7B1FF0446AF48006941F6FB71084079
:102C2000AC490861204610BD00B502460423FFF7F9
:102C30008AFF034603E0FFF786FF0346521E012B7F
:102C400001D1002AF7D102B90523184600BD10B5FD
:102C500004244FF43020FFF7E7FF0446042C16D17C
:102C60009C48006940F004009A49086108460069E0
:102C700040F0400008614FF43020FFF7D5FF0446D4
:102C80009448006941F6FB7108409249086120466A
:102C900010BD00208F49C96901F0020109B101206E
:102CA00000E00020704730B5A5250424FFF7F1FFB0
:102CB00000B100254FF43020FFF75DFF0446042CDF
:102CC0003AD185488349886084488860084600690D
:102CD00040F0200008610846006940F040000861AB
:102CE0004FF43020FFF747FF0446042C1BD17948EE
:102CF000006941F6DF7108407649086108460069BD
:102D000040F01000086176480580E002FFF733FFCD
:102D10000446052C10D06F48006941F6EF71084059
:102D20006C49086108E0052C06D06A48006941F644
:102D3000EF71084067490861204630BD78B5064606
:102D40000C46042500200090E802FFF714FF05461A
:102D5000042D24D15F48006940F001005D490861FD
:102D60003480E802FFF707FF0546042D10D1B01CA0
:102D70000090200C00990880E802FFF7FCFE054651
:102D80005448006941F6FE7108405249086106E066
:102D90005048006941F6FE7108404E4908612846D6
:102DA00078BD70B504460D460426F002FFF7E3FE39
:102DB0000646042E11D14748006940F001004549FC
:102DC00008612580F002FFF7D6FE064641480069FB
:102DD00041F6FE7108403F490861304670BD70B54C
:102DE00005460E460424E002FFF7C5FE0446042C07
:102DF00017D13948374988603848886008460069E3
:102E000040F0100008612E80E002FFF7B4FE044697
:102E1000052C06D02F48006941F6EF7108402D4976
:102E20000861204670BD2DE9F04304464FF6FF7659
:102E30003746B046B1460425E443E6B2C4F307275B
:102E4000C4F307484FEA1469E802FFF794FE054609
:102E5000042D49D120481F498860204888600846D1
:102E6000006940F010000861FF2E06D01C480830B1
:102E70000680E802FFF77FFE0546042D08D1FF2FEC
:102E800006D017480A300780E802FFF774FE0546AF
:102E9000042D0AD1B8F1FF0F07D011480C30A0F86B
:102EA0000080E802FFF767FE0546042D0AD1B9F15C
:102EB000FF0F07D00A480E30A0F80090E802FFF795
:102EC0005AFE0546052D0FD00248006941F6EF7104
:102ED000084007E00020024023016745AB89EFCDA1
:102EE00000F8FF1F664908612846BDE8F08330B549
:102EF000054604244FF43020FFF73DFE0446042C21
:102F000041D160485E4988605F4888600846006932
:102F100040F0200008610846006940F04000086168
:102F20004FF43020FFF727FE0446042C22D15448EA
:102F3000006941F6DF71084051490861084600699F
:102F400040F0100008611DB100205049088002E0E7
:102F5000A5204E4908804FF43020FFF70CFE0446B0
:102F6000052C10D04648006941F6EF7108404449ED
:102F7000086108E0052C06D04148006941F6DF7180
:102F800008403F490861204630BDF0B505460E4671
:102F9000174604243B483A4988603B488860E00271
:102FA000FFF7E9FD0446042C19D13548006940F0CB
:102FB00010003349086147F0F80030432843334993
:102FC000891C0880E002FFF7D6FD0446052C06D0D8
:102FD0002B48006941F6EF710840294908612046F5
:102FE000F0BD2748C069800870472548006A7047CF
:102FF00000202349096801F0200109B1012000E007
:103000000020704729B11E4A126902431C4B1A6105
:1030100004E01B4A12698243194B1A61704701464A
:103020000020012908D1164AD26902F001020AB132
:10303000012008E0002006E0114AD2680A400AB1E7
:10304000012000E0002070470D49C860704704204F
:103050000B49C96801F0010109B101200EE00849DE
:10306000C96801F0040109B1022007E00449C968F8
:1030700001F0100109B1032000E0042070470000B6
:103080000020024023016745AB89EFCD00F8FF1F08
:1030900010B50446CC48844208D10121042000F038
:1030A0002DFB0021042000F029FB46E0C7488442A4
:1030B00008D10121082000F021FB0021082000F0A8
:1030C0001DFB3AE0C248844208D10121102000F0E3
:1030D00015FB0021102000F011FB2EE0BD488442BA
:1030E00008D10121202000F009FB0021202000F060
:1030F00005FB22E0B848844208D10121402000F0BD
:10310000FDFA0021402000F0F9FA16E0B3488442AD
:1031100008D10121802000F0F1FA0021802000F088
:10312000EDFA0AE0AE48844207D10121801500F093
:10313000E5FA0021A01500F0E1FA10BD10B501215B
:10314000084600F0DBFA0021012000F0D7FA10BD9C
:103150002DE9F0410246002500260020002300242E
:10316000002791F803C00CF00F0591F803C00CF094
:10317000100CBCF1000F03D091F802C04CEA050519
:1031800091F800C0BCF1000F31D0146800202BE092
:103190004FF0010C0CFA00F3B1F800C00CEA030682
:1031A0009E4220D183004FF00F0C0CFA03F7BC4372
:1031B00005FA03FC4CEA040491F803C0BCF1280FA3
:1031C00006D14FF0010C0CFA00FCC2F814C00AE062
:1031D00091F803C0BCF1480F05D14FF0010C0CFA77
:1031E00000FCC2F810C0401C0828D1D31460B1F80C
:1031F00000C0BCF1FF0F34DD546800202EE000F168
:10320000080C4FF0010808FA0CF3B1F800C00CEA02
:1032100003069E4221D183004FF00F0C0CFA03F7F6
:10322000BC4305FA03FC4CEA040491F803C0BCF16A
:10323000280F05D100F1080C08FA0CF8C2F8148028
:1032400091F803C0BCF1480F07D100F1080C4FF012
:10325000010808FA0CF8C2F81080401C0828CED3E8
:103260005460BDE8F0814FF6FF710180022181704A
:103270000421C17070470246002093680B400BB1D7
:10328000012000E0002070470146886880B2704746
:1032900002460020D3680B400BB1012000E0002063
:1032A00070470146C86880B270470161704741614C
:1032B00070470AB1016100E041617047C160704729
:1032C0004FF480320A43826181618261826982693E
:1032D000704702460020434B18684FF68073184031
:1032E00040EA021008433F4B186070473E49C861EE
:1032F0007047F0B50A46002300240021002500F0A5
:103300000046B6F1004F02D1364EF16901E0354E6C
:103310007168C0F3034583B200F44016B6F5401F50
:1033200008D121F070612F4E766826F070662D4F1F
:103330007E6012E000F48016B6F5801F06D10326E9
:1033400006FA05F4A14341F0706106E0460D36012E
:1033500003FA06F6B14341F0706122B1460D360121
:1033600003FA06F6314300F00046B6F1004F02D1F1
:103370001C4EF16101E01B4E7160F0BD30B50022C2
:103380008B071C0F0F2303FA04F2164B08338C1023
:1033900053F824309343134C08348D1044F82530EF
:1033A00023468C1053F824308C07240F00FA04F4C1
:1033B00023430C4C08348D1044F8253030BD0A49A5
:1033C000DC3108607047000000080140000C01403B
:1033D000001001400014014000180140001C014091
:1033E000002001400000014000002042DF4800684A
:1033F00040F00100DD49086008464068DC490840AB
:10340000DA49486008460068DA490840D749086048
:103410000846006820F4802008600846406820F4D0
:10342000FE0048604FF41F0088607047CF4909686C
:1034300021F48031CD4A11601146096821F48021C0
:103440001160B0F5803F03D0B0F5802F0ED106E0BB
:10345000C649096841F48031C44A116007E0C34994
:10346000096841F4A021C14A116000E000BF00BF1B
:10347000704710B501460022002300204A11012A9E
:1034800002D1BA4C236806E0022A02D1B74C236A63
:1034900001E0B64C636A01F01F02012494401C4015
:1034A0000CB1012000E0002010BD38B500200090D4
:1034B0000024002500BF3120FFF7DBFF0546009800
:1034C000401C00900098B0F5A06F01D0002DF2D004
:1034D0003120FFF7CEFF08B1012400E00024204690
:1034E00038BD01460020A14A106820F0F80040EAEB
:1034F000C10010607047A049086070470246002074
:103500009A4B586820F47C1042EA01031843974B09
:103510005860704798490866704701460020934AF2
:10352000506820F003000843506070478F4840689F
:1035300000F00C007047014600208C4A506820F0D3
:10354000F00008435060704701460020874A5068E9
:1035500020F4E06008435060704701460020834A31
:10356000506820F4605040EAC1005060704729B1B3
:103570007E4A527A02437D4B5A7204E07B4A527A69
:1035800082437A4B5A7270477B49D8310860704742
:1035900001460020754A506820F4404008435060BE
:1035A00070470021714A20321170704A82F8201051
:1035B000012802D004280AD104E001216B4A2032FC
:1035C000117005E00521694A2032117000E000BF4A
:1035D00000BF70476949086070476449096A014340
:1035E000624A11627047654944390860704730B5D6
:1035F00000210022002400235C4D6D6805F00C01C1
:1036000021B1042905D0082923D105E05C4D0560CE
:1036100022E05B4D05601FE0544D6D6805F47012AB
:10362000524D6D6805F48034022505EB92421CB9B9
:10363000544D554305600BE04C4D6D6805F4003565
:103640001DB1504D5543056002E04D4D5543056099
:1036500002E04B4D056000BF00BF444D6D6805F0B2
:10366000F0010909484D6B5C0568DD4045603F4D40
:103670006D6805F4E061090A434D6B5C4568DD4007
:1036800085603A4D6D6805F46051C90A3E4D6B5C2A
:103690004568DD40C560354D6D6805F44041890BD6
:1036A0003A4D6B5CC568B5FBF3F5056130BD29B1DA
:1036B0002E4A526902432D4B5A6104E02B4A52694B
:1036C00082432A4B5A61704729B1284A92690243C2
:1036D000264B9A6104E0254A92698243234B9A6102
:1036E000704729B1214AD2690243204BDA6104E0D4
:1036F0001E4AD26982431D4BDA61704729B11B4AC9
:10370000D2680243194BDA6004E0184AD268824357
:10371000164BDA60704729B1144A12690243134B01
:103720001A6104E0114A12698243104B1A61704712
:1037300012494039086070470F49C86470470B4907
:10374000C87170470948406A40F080700749486274
:10375000704701460020054A92680A400AB10120DC
:1037600000E0002070470149887270470010024055
:103770000000FFF8FFFFF6FE0000424280044242D4
:1037800000127A0000093D00C4010020D40100208D
:1037900010B50446FE48844208D10121C014FFF749
:1037A000ADFF0021E014FFF7A9FFC4E0B4F1804FA2
:1037B00008D101210846FFF7AEFF00210120FFF7E5
:1037C000AAFFB8E0F348844208D101210220FFF7A4
:1037D000A2FF00210220FFF79EFFACE0EE488442EA
:1037E00008D101210420FFF796FF00210420FFF7F4
:1037F00092FFA0E0E948844208D101210820FFF7A8
:103800008AFF00210820FFF786FF94E0E448844205
:1038100008D101211020FFF77EFF00211020FFF7C3
:103820007AFF88E0DF48844208D101212020FFF799
:1038300072FF00212020FFF76EFF7CE0DA4884420F
:1038400008D101214014FFF759FF00216014FFF750
:1038500055FF70E0D548844209D10121C804FFF723
:103860004DFF00214FF40020FFF748FF63E0D048F0
:10387000844209D101210805FFF740FF00214FF4E0
:103880008010FFF73BFF56E0CA48844209D101216E
:103890004805FFF733FF00214FF40010FFF72EFF1C
:1038A00049E0C548844208D101214020FFF733FF99
:1038B00000214020FFF72FFF3DE0C048844208D19F
:1038C00001218020FFF727FF00218020FFF723FF41
:1038D00031E0BB48844208D101218015FFF71BFF6E
:1038E0000021A015FFF717FF25E0B648844209D153
:1038F00001210804FFF702FF00214FF48030FFF799
:10390000FDFE18E0B048844209D101214804FFF7C8
:10391000F5FE00214FF40030FFF7F0FE0BE0AB485E
:10392000844208D101218804FFF7E8FE00214FF40A
:103930008020FFF7E3FE10BD00220288944B9842DE
:103940000ED0994B98420BD0B0F1804F08D0914BDC
:10395000984205D0904B984202D0904B984204D1A7
:103960004FF68F731A404B881A438D4B984207D0FD
:103970008C4B984204D04FF6FF431A40CB881A4331
:1039800002808B8883850B880385814B98420BD0FE
:10399000854B984208D08B4B984205D08A4B984271
:1039A00002D08A4B984201D10B7A0386012383828D
:1039B000704770B5002400220023058C4FF6FE7678
:1039C00035400584028C8388048B4FF68F752C401C
:1039D000B51E2C400D882C43751E2A400D892A43A4
:1039E0004D882A436A4DA8420BD06F4DA84208D09B
:1039F000744DA84205D0744DA84202D0734DA84220
:103A000013D14FF6F7752A404D892A434FF6FB75BF
:103A10002A408D882A434FF6FF652B404FF6FF550D
:103A20002B408D892B43CD892B4383800483CD8804
:103A30008586028470BD70B5002400220023058CA9
:103A40004FF6EF7635400584028C8388048B48F668
:103A5000FF752C404FF6FF452C400D884FF6FF7642
:103A600006EA05252C434FF6DF752A400D8906EA44
:103A700005152A434D8806EA05152A43444DA842F8
:103A800002D0494DA8421DD14FF67F752A404D897D
:103A90004FF6FF7606EA05152A434FF6BF752A4012
:103AA0008D8806EA05152A434FF6FF352B404FF265
:103AB000FF752B408D8906EA85052B43CD8906EAE3
:103AC00085052B4383800483CD880587028470BDE0
:103AD00070B5002400220023058C4FF6FF663540A8
:103AE0000584028C8388848B4FF68F752C404FF6AB
:103AF000FC752C400D882C434FF6FF552A400D894C
:103B00004FF6FF7606EA05252A434D8806EA052585
:103B10002A431F4DA84202D0234DA8421DD14FF287
:103B2000FF752A404D894FF6FF7606EA05252A43A0
:103B30004FF6FF352A408D8806EA05252A434EF6C2
:103B4000FF752B404DF6FF752B408D8906EA051554
:103B50002B43CD8906EA05152B4383808483CD88CA
:103B60008587028470BD70B5002200230024058C77
:103B70004EF6FF7635400584038C8488828B48F6A8
:103B8000FF752A404FF6FF452A400D8820E00000CF
:103B9000002C01400004004000080040000C0040E0
:103BA000001000400014004000340140004C01406F
:103BB000005001400054014000180040001C00402B
:103BC0000020004000400140004401400048014006
:103BD0004FF6FF7606EA05252A434DF6FF752B4082
:103BE0000D8906EA05352B434D8806EA05352B433A
:103BF000FA4DA84202D0FA4DA84208D14BF6FF7503
:103C00002C408D894FF6FF7606EA85152C4384807B
:103C10008283CD88A0F84050038470BD828B4FF220
:103C2000FF331A408283828B4FF6FF7303EA01232E
:103C30001A4382837047F0B50C46154600220021D6
:103C40000026078C4EF6FF7C07EA0C070784828B60
:103C5000018C4FF6FF7707EA043640F6FF473A40FB
:103C60004FF6FF7707EA05273A434FF6FF7707EA53
:103C700003373A43D94FB8420ED0D94FB8420BD090
:103C8000B0F1804F08D0D74FB84205D0D64FB842D8
:103C900002D0D64FB84206D14DF6FF77394046F4F0
:103CA0008057394305E047F6FF57394044F48057C1
:103CB000394382830184F0BD828B4FF6F3731A403F
:103CC0008283828B0A4382837047F0B50C46154687
:103CD000002200210026078C4FF6FF6C07EA0C0734
:103CE0000784828B018C4FF6FF7707EA04264FF694
:103CF0000C773A404FF6FF7707EA03172F433A4312
:103D0000B64FB8420ED0B64FB8420BD0B0F1804F8C
:103D100008D0B44FB84205D0B34FB84202D0B34F29
:103D2000B84206D14FF6FF57394046F48077394301
:103D300005E04FF2FF57394044F4807739438283DE
:103D40000184F0BD028B4FF2FF331A400283028BD5
:103D50004FF6FF7303EA01231A4302837047F0B55D
:103D60000C461546002200210026078C4FF6EF7CFA
:103D700007EA0C070784028B018C4FF6FF7707EAEE
:103D8000041640F6FF473A404FF6FF7707EA03373D
:103D90003A434FF6FF7707EA05273A438F4FB84279
:103DA0000ED08F4FB8420BD0B0F1804F08D08D4F5E
:103DB000B84205D08C4FB84202D08C4FB84206D1E1
:103DC0004FF6DF77394046F01007394305E04FF6EC
:103DD0005F77394044F01007394302830184F0BD16
:103DE000028B4FF6F3731A400283028B0A4302835D
:103DF0007047F0B50C46154600220021068C4FF6A0
:103E0000FE773E400684028B018C4FF60C763240E2
:103E10007E1C06EA03162E433243704EB0420ED08B
:103E20006F4EB0420BD0B0F1804F08D06D4EB04213
:103E300005D06D4EB04202D06C4EB04206D14FF666
:103E4000FD76314044F00106314305E04FF6F5764A
:103E5000314044F00106314302830184F0BD70B566
:103E600005460C465D4885420ED05D4885420BD024
:103E7000B5F1804F08D05B48854205D05A4885424D
:103E800002D05A48854200D100E000BF208850B9D6
:103E90002389A28861882846FFF7ABFFE18828467E
:103EA000FFF79EFF25E0208804280AD12389A288F5
:103EB00061882846FFF753FFE1882846FFF742FF55
:103EC00017E0208808280AD12389A288618828461B
:103ED000FFF7FBFEE1882846FFF7EEFE09E02389A5
:103EE000A28861882846FFF7A6FEE1882846FFF7EA
:103EF00095FE70BD2DE9F04105460C4600260127D0
:103F0000608808B9022600E00026A088012801D1B7
:103F1000022700E001272088A0B92389A2886188B0
:103F20002846FFF766FFE1882846FFF759FF2389F7
:103F30003A4631462846FFF712FFE1882846FFF748
:103F400001FF13E02389A28861882846FFF707FF55
:103F5000E1882846FFF7F6FE23893A46314628468F
:103F6000FFF747FFE1882846FFF73AFFBDE8F081F9
:103F70000A884B881A438B881A43CB881A430B89CB
:103F80001A434B891A438B891A43A0F8442070477F
:103F90004FF6FF71818000210180C1804180017254
:103FA00070470021018041808180C1800181418171
:103FB0008181C18170470021018041800121818080
:103FC0000021C180018170470021018041808180F2
:103FD000C18001814181818170470000002C014036
:103FE000003401400004004000080040000C004084
:103FF00021B1028842F00102028004E002884FF6FB
:10400000FE731A400280704731B1B0F8442042F488
:104010000042A0F8442005E0B0F84420C2F30E02AC
:10402000A0F8442070471AB183890B43838102E0D2
:1040300083898B43838170478182704741EA020301
:10404000A0F8483070471AB183890B43838102E09E
:1040500083898B438381704701894FF6F872114041
:10406000018170470A46002101894FF68F7319407C
:1040700011430181704730B504460D46294620465C
:10408000FFF7F0FF208940F00700208130BD2DE9C7
:10409000F04104460D4616461F46602D06D13B46AC
:1040A000012231462046FFF75AFE05E03B46012239
:1040B00031462046FFF79DFE29462046FFF7D2FFF6
:1040C000208940F007002081BDE8F08130B50C4622
:1040D00000210189C9B24FF6FF7505EA0325154392
:1040E00025432943018130BD2DE9F04105460E46A7
:1040F00017469846002443463A4631462846FFF77D
:10410000E5FF2C894FF6F870044044F007044FF6A1
:104110008F70044044F070042C81BDE8F081F0B54C
:1041200004460D4616461F463B4632462946204663
:10413000FFF7CCFF208940F480402081F0BD01854D
:10414000828270470A46002101884FF68F7319401A
:10415000114301807047F0B50C4615461E460021FC
:10416000002200230189028B038C4FF6F877394037
:1041700021434FF6FC473A4040F201173A434FF6CD
:10418000DD773B404FF6FF7707EA06172F433B43A7
:10419000018102830384F0BD0A460021018B4FF6A2
:1041A0008F7319401143018370470A460021018B28
:1041B00048F6FF7319404FF6FF7303EA02231943D1
:1041C000018370470A460021818B4FF68F73194097
:1041D0001143818370470A460021818B48F6FF73A3
:1041E00019404FF6FF7303EA022319438183704796
:1041F00021B1028842F08002028004E002884FF67A
:104200007F731A400280704721B1828842F0040215
:10421000828004E082884FF6FB731A4082807047E8
:1042200021B1828842F00802828004E082884FF641
:10423000F7731A408280704721B1828842F00102F0
:10424000828004E082884FF6FE731A4082807047B5
:104250000A460021018B4FF6F77319401143018381
:1042600070470A460021018B4FF2FF7319404FF649
:10427000FF7303EA02231943018370470A460021B2
:10428000818B4FF6F77319401143818370470A46BB
:104290000021818B4FF2FF7319404FF6FF7303EA41
:1042A00002231943818370470A460021018B4FF690
:1042B000FB7319401143018370470A460021018BAB
:1042C0004FF6FF3319404FF6FF7303EA02231943F9
:1042D000018370470A460021818B4FF6FB7319401A
:1042E0001143818370470A460021818B4FF6FF33CB
:1042F00019404FF6FF7303EA022319438183704785
:104300000A460021018B4FF67F7319401143018348
:1043100070470A460021018BC1F30E014FF6FF736F
:1043200003EA02231943018370470A460021818B67
:104330004FF67F7319401143818370470A4600216D
:10434000818BC1F30E014FF6FF7303EA0223194379
:10435000818370470A460021018C4FF6FD73194096
:104360001143018470470A460021018C4FF6F77310
:1043700019401143018470470A460021018C4FF611
:10438000DF7319404FF6FF7303EA021319430184E8
:1043900070470A460021018C4FF67F7319404FF693
:1043A000FF7303EA02131943018470470A46002190
:1043B000018C4FF6FF5319404FF6FF7303EA0223B7
:1043C0001943018470470A460021018C4FF2FF73A4
:1043D00019404FF6FF7303EA022319430184704723
:1043E0000A460021018C4DF6FF7319404FF6FF730A
:1043F00003EA023319430184704730B500230124D6
:104400008C40A3B2048C9C430484048C02FA01F512
:10441000ADB22C43048430BD30B5002304248C405D
:10442000A3B2048C9C430484048C02FA01F5ADB25F
:104430002C43048430BD70B5034600200024184688
:10444000183001258D40ACB21D8CA5431D8409B1E7
:10445000082909D100EB6100056825F070050560A9
:104460000568154305600EE00D1FC5F34E05284491
:10447000056825F4E045056005684FF6FF7606EA15
:1044800002263543056070BD21B1028842F0020268
:10449000028004E002884FF6FD731A4002807047E4
:1044A00021B1028842F00402028004E002884FF643
:1044B000FB731A400280704721B1828842F080026B
:1044C000828004E082884FF67F731A4082807047B2
:1044D00002884FF6F7731A40028002880A4302806E
:1044E000704782884FF68F731A40828082880A4311
:1044F0008280704702894FF6F8731A400281028960
:104500000A430281704702894FF67F731A40028185
:1045100002890A4302817047818470478185704710
:10452000818670470187704781877047A0F84010E7
:10453000704702884FF6FF431A40028002880A4300
:10454000028070470146888E70470146088F704789
:104550000146888F70470146B1F840007047014618
:10456000888C70470146088D704702460020138AE8
:104570000B400BB1012000E000207047CA430282CB
:10458000704730B50246002000230024158A05EA52
:104590000103958905EA010413B10CB1012000E083
:1045A000002030BDCA4302827047000010B50446A7
:1045B000FB48844209D101218803FFF79FF80021BD
:1045C0004FF48040FFF79AF832E0F648844209D170
:1045D00001214804FFF79FF800214FF40030FFF756
:1045E0009AF825E0F048844209D101218804FFF7B8
:1045F00092F800214FF48020FFF78DF818E0EB4887
:10460000844209D10121C804FFF785F800214FF445
:104610000020FFF780F80BE0E548844208D1012133
:104620000805FFF778F800214FF48010FFF773F8C2
:1046300010BD2DE9F04786B005460E460024A2467F
:1046400000BFA1460027B08900B100BF2F462C8AC9
:104650004CF6FF700440F08804432C82AC894EF67F
:10466000F3100440B088318908437189084304433A
:10467000AC81AC8A4FF6FF400440B0890443AC8261
:1046800001A8FEF7B4FFC648874202D1DDF810A0AA
:1046900001E0DDF80CA0A88900F4004040B10AEB6D
:1046A000CA0000EB0A1031684900B0FBF1F807E0DE
:1046B0000AEBCA0000EB0A1031688900B0FBF1F880
:1046C0006420B8FBF0F004012009642101FB10898B
:1046D000A88900F4004040B1322000EBC900B0FBD3
:1046E000F1F000F00700044308E0322000EB09106D
:1046F0006421B0FBF1F000F00F0004432C8106B000
:10470000BDE8F0874FF41651016000218180C1801F
:1047100001810C21418100218181704710B5024641
:104720000020108A4FF2FF0318400B884C88234367
:104730008C882343CC8823431843108210BD00216A
:10474000018041808180C180704721B1828942F41B
:104750000052828104E082894DF6FF731A40828103
:104760007047F0B50346002400260025002040F6DF
:104770006A17B94200D100BF1846C1F3421401F0D4
:104780001F06012707FA06F5012C01D10C3004E0C1
:10479000022C01D1103000E014301AB107682F4309
:1047A000076002E00768AF430760F0BD1AB1838A73
:1047B0000B43838202E0838A8B4383827047028AA1
:1047C0004FF6F0731A400282028A0A43028270474F
:1047D00082894FF2FF731A40828182890A43828163
:1047E000704721B1828942F00202828104E082890D
:1047F0004FF6FD731A4082817047028A4FF6DF73CD
:104800001A400282028A0A430282704721B1028A58
:1048100042F48042028204E0028A4BF6FF731A409F
:1048200002827047C1F3080282807047014688887F
:10483000C0F308007047818941F001018181704710
:10484000028BD2B20283028B42EA012202837047BA
:10485000028B02F47F420283028B0A430283704779
:1048600021B1828A42F02002828204E0828A4FF6DD
:10487000DF731A408282704721B1828A42F01002AF
:10488000828204E0828A4FF6EF731A408282704778
:1048900021B1828A42F00802828204E0828A4FF6C5
:1048A000F7731A408282704721B1828942F4004234
:1048B000828103E08289C2F30E028281704721B1B6
:1048C000828A42F40062828204E0828A4FF2FF739D
:1048D0001A4082827047828A4FF6FB731A408282A6
:1048E000828A0A438282704721B1828A42F00202A0
:1048F000828204E0828A4FF6FD731A4082827047FA
:1049000002460020B1F5007F00D100BF13880B40A4
:104910000BB1012000E00020704701F40072B2F5F5
:10492000007F00D100BFCA430280704770B50246C5
:10493000002400230025002040F66A16B14200D171
:1049400000BFC1F3421501F01F03012606FA03F36D
:10495000012D02D19689334006E0022D02D1168A3C
:10496000334001E0968A33400C12012606FA04F423
:104970001688344013B10CB1012000E0002070BD56
:1049800010B50022002340F66A14A14200D100BFF6
:104990000A1201249440A3B2DC43048010BD00003D
:1049A000003801400044004000480040004C0040F6
:1049B000005000400CB50020019000906C48006849
:1049C00040F480306A49086000BF6948006800F41C
:1049D000003000900198401C0190009818B901988F
:1049E000B0F5A06FF1D16248006800F4003010B15A
:1049F0000120009001E0002000900098012843D1A0
:104A00005C48006840F010005A4908600846006899
:104A100020F0030008600846006840F002000860CB
:104A20005348406852494860084640684860084614
:104A3000406840F4806048600846406820F47C107C
:104A400048600846406840F4E8104860084600683E
:104A500040F08070086000BF4548006800F00070BA
:104A60000028F9D04248406820F0030040494860DF
:104A70000846406840F00200486000BF3C4840687B
:104A800000F00C000828F9D10CBD10B5FFF792FF1B
:104A900010BD10B53648006840F001003449086088
:104AA0000846406834490840314948600846006873
:104AB000324908402E4908600846006820F48020EA
:104AC00008600846406820F4FE0048604FF41F006C
:104AD0008860FFF7DAFF4FF000602949086010BDD9
:104AE00010B5002100200022214B5B6803F00C016F
:104AF00021B1042906D0082928D107E0214B224CF6
:104B0000236027E01F4B204C236023E0184B5B6899
:104B100003F47010164B5B6803F48032022303EB3E
:104B2000904022B9194B4343174C23600DE0104BC2
:104B30005B6803F4003323B1144B4343124C2360EE
:104B400003E0104B4343104C236003E00D4B0E4C2D
:104B5000236000BF00BF064B5B68C3F303130C4C1C
:104B6000E15C094B1B68CB40074C236010BD000083
:104B700000100240002002400000FFF8FFFFF6FE98
:104B800008ED00E000127A00D801002000093D0085
:104B9000DC0100200F481048104811481148124805
:104BA0001248134813481448144815481548164825
:104BB00016481748174818481848194819481A48F5
:104BC0001A481B481B481C481C481D481D481E48C5
:104BD00000BF704710B4000870B3000874B3000839
:104BE00078B300087CB3000880B3000884B30008E1
:104BF00088B300088CB3000890B3000894B3000891
:104C000098B300089CB30008A0B30008A4B3000840
:104C1000B4B30008B8B30008BCB30008C0B30008C0
:104C2000C4B30008C8B30008CCB30008D0B3000870
:104C3000D4B30008D8B30008DCB30008E0B3000820
:104C4000E4B30008E8B30008ECB30008002400BF98
:104C500019E000BF00BF03F0C3F8044600BF00BF67
:104C6000FD480068401CFC490860FC480068401C86
:104C7000FA49086000BF00BF204603F0B5F800BF46
:104C800000BF03F031F8E4E710B58AB00446002015
:104C9000F1490860032000210591CDE90704069140
:104CA0000846EF490968EF4A1268EF4B1B68CDE9E7
:104CB0000132CDE9031007200023AFF26F02EBA110
:104CC0000090EF4801F07BFB0AB010BD00210AE024
:104CD00001EB4102EB4B03EB8200002202810260F8
:104CE00042604A1CD1B20829F2D3704770B504461D
:104CF00002F0FBFF0020E4490870E4490870E44931
:104D00000870E4490870E44800680A21B0FBF1F03B
:104D1000E2490860E248006858B1E248056845B1D8
:104D2000DF48066803E0761E002028602D1D002E57
:104D3000F9D101F04DF9FFF7C9FF204602F071FAF1
:104D4000208800B170BD204600F066FF208800B1C9
:104D5000F8E72046FFF798FF208800B1F2E72046E9
:104D600002F0A5FB208800B1ECE7204601F067FACD
:104D7000208800B1E6E7204601F016F9208800B14E
:104D8000E0E700F0A5FDFFF705FF00BFDAE7BF4849
:104D90000078012800D07047BB480078FA2800DB73
:104DA000F9E7B9480078401CB749087000BFF2E73E
:104DB00010B50024B5480078012800D010BD00BF10
:104DC00003F00EF8044600BFAF48007828B900BFD2
:104DD000204603F009F800BFF0E7AB480078401E1A
:104DE000A949087008460078002805DD00BF204664
:104DF00002F0FAFF00BFE1E7A5480078002805DDD2
:104E000000BF204602F0F0FF00BFD7E701F0EAF84C
:104E1000A54908700846007800EB4000994951F810
:104E20002000A249086008460068A1490968884234
:104E300005D100BF204602F0D7FF00BFBEE79D4866
:104E40000068401C9B4908604FF080509A490860F8
:104E500000BF204602F0C8FF00BF00BFAEE710B59C
:104E6000002489480078002800DD10BD88480078BB
:104E7000002800DDF9E700BF02F0B2FF044600BFE2
:104E800001F0B0F8884908700846007800EB40004F
:104E90007C4951F82000854908600846006884492B
:104EA0000968884205D100BF204602F09DFF00BF7F
:104EB000DBE780480068401C7E4908604FF0805066
:104EC0007D49086000BF204602F08EFF00BF00BF92
:104ED000CBE770B5044600256B480078002803DD59
:104EE00046F66250208070BD68480078012803D0E3
:104EF00045F689602080F6E765480078FA2803DBEC
:104F000045F209202080EEE700BF00BF02F068FFF5
:104F1000054600BF00BF5E480078401C5C49087031
:104F200000BF00BF284602F05FFF00BF00BF0020A7
:104F3000208000BFD7E770B50446002552480078AE
:104F4000002803DD46F66550208070BD4F4800788C
:104F5000012803D045F689602080F6E74C480078A8
:104F600018B946F664502080EFE700BF00BF02F09A
:104F700037FF054600BF00BF45480078401E444942
:104F800008700846007800280ADD00BF00BF2846E8
:104F900002F02AFF00BF00BF46F663502080D4E72E
:104FA00000BF00BF284602F01FFF00BF00BFFFF791
:104FB00056FF0020208000BFC7E72DE9F0410546DD
:104FC0000C461646002700BF00BF02F009FF074647
:104FD00000BF00BF012D03D000202E49087002E061
:104FE00001202C49087014B12C48046006E02A48BE
:104FF00000680A21B0FBF1F02849086000BF00BF3B
:10500000384602F0F1FE00BF00BF00203080BDE84E
:10501000F08110B501460C8924B1012C03D0022C7B
:105020000CD101E000BF14E008684A680261002466
:10503000C4601461D0600A6048600AE008684A6889
:10504000C36800241C61C4600261D0600B604860CA
:1050500000BF00BF10BD0000F001002028020020AA
:1050600078B3000874B3000870B3000875432F4F7D
:10507000532D4949492049646C65205461736B0084
:105080001418002004190020F4010020F50100206C
:105090001F02002024020020D0B3000820020020BC
:1050A000A0B300089CB300081D0200205802002095
:1050B000540200204002002004ED00E02DE9F04100
:1050C00004460027F6480078002804DD48F2D14065
:1050D0002080BDE8F081F3480078002803DD46F623
:1050E00063502080F5E7F0480078012803D046F6A9
:1050F0007B102080EDE700BF00BF02F071FE074685
:1051000000BF00BFE948007800EB4000E84901EB30
:105110008006308902280ADA00BF00BF384602F054
:1051200063FE00BF00BF46F67A102080D1E730460C
:10513000FFF76FFF3568686D18B9DE480068A8652D
:1051400001E0686DA86500BF00BF384602F04CFE64
:1051500000BF00BFFFF783FE0020208000BFB8E73C
:1051600010B50446D4480078E8B900F03BFFD349B5
:10517000087008460078CD490870D048007800EBE8
:105180004000CB4951F82000CD490860084600682E
:10519000CC4908600120C849087002F063FD43F65D
:1051A0009920208002E045F68A60208010BD0146EB
:1051B0000020088047F2F850704730B540B145688C
:1051C0004D6700F10804226893681D6AC56110E00C
:1051D00091F83450022D02D0072D06D102E0BAA575
:1051E0004D6705E0BAA54D6702E0BCA54D6700BF5D
:1051F00000BF30BDF0B58E6896F8375007893FB9CB
:105200000127078100274F600F600160416023E0A4
:1052100007897F1C0781026806E0946894F837705C
:10522000AF4200DD02E05268002AF6D100BF32B979
:1052300000274F6043680B60596041600CE01768BD
:105240002FB9116000270F604A60016004E0136805
:105250000B604A6059601160F0BD10B5C2870163F0
:1052600000230AE000244C600C600C614C610C834C
:10527000CC61886020315C1CA3B29342F2DB10BD8C
:105280002DE9F041054695F8370000EB40008849CC
:1052900001EB80042F69EE6887B946B900202081B0
:1052A0002060606095F8370000F0BEFE0EE02089B7
:1052B000401E208100203061266007E02089401ECA
:1052C0002081FE600EB9676000E037610020286130
:1052D000E860BDE8F08138B504460D4685B16B46FF
:1052E00002222946204602F011F9BDF8000018B943
:1052F000032084F8360006E0022084F8360002E03D
:10530000022084F836002046FFF7BAFF38BD2DE9A9
:10531000F04105460C4616461F466A48006880F86C
:10532000346000206749096881F8350039466548CE
:105330000068FFF7D0FF6CB104F10808EC600122AF
:10534000294660480068FFF788FF29464046FFF776
:1053500051FF06E000205B490968C8875949096880
:105360000863584801682046FFF727FFBDE8F08131
:1053700010B50489012C03D100240460446011E0BD
:105380000C6824B94A680024146002600AE04C6882
:1053900024B90B6800245C60436003E00B684A6832
:1053A0005A6013600489641E048100244C600C6000
:1053B00010BD2DE9F0410446256BE68F0AE0D5F8D3
:1053C0000C8008F1080729463846FFF7D1FF203541
:1053D000701E86B2002EF2DC0020E0872063BDE85C
:1053E000F08130B50346086BCC8F08E0C5689D425C
:1053F00002D10361C26104E02030651EACB2002C12
:10540000F4DC00BF30BD10B590F8373003EB430338
:10541000274C04EB83010B893BB901230B8100234B
:10542000C36003610860486009E00B895B1C0B8165
:105430000B68C360002303610A681061086010BD37
:1054400010B590F8373003EB4303194C04EB83019C
:105450000B893BB901230B810023C3600361086002
:10546000486008E00B895B1C0B810023C3604A681D
:105470000261D060486010BD10B5044694F8370052
:1054800000F0C2FD94F8370008490978884203D13A
:105490002046FFF7D5FF02E02046FFF7B4FF10BD1E
:1054A000F40100201F020020240200201C02002022
:1054B0000419002020020020F50100201D02002018
:1054C00058020020540200205461736B20510000E8
:1054D0005461736B2053656D0000000020000000D4
:1054E00010B50446204601F0C1FE94F8360000F0E5
:1054F000040010B92046FFF7BFFF10BD70B5054688
:105500000C46164694F8360008283FD2DFE800F033
:10551000040508090607232400BF00BF00BF36E0CA
:1055200000BF94F83400032804D1324621462846AF
:10553000FFF757FF266415B12046FFF73AFF2046D4
:10554000FFF7CEFF00203434A070012060700020EF
:1055500004F834091BE000BF94F83400032804D198
:10556000324621462846FFF73CFF266415B1204607
:10557000FFF71FFF204601F079FE04203434A070AD
:1055800001206070002004F8340900E000BF00BF73
:1055900070BD30B5AFF2BC054D6700F1080422685C
:1055A0001AB193681D6AC56102E0AFF2D005C5610A
:1055B00030BD2DE9F04304460F4684F83770256B63
:1055C000B4F83E8013E0D5F80C9009F10806308954
:1055D000012807D929463046FFF7CAFE294630463A
:1055E000FFF708FE2035A8F101001FFA80F8B8F196
:1055F000000FE8D1BDE8F083002101604160018126
:10560000704703895B1C038103684B6000230B60B8
:10561000026802B1116001600389012B00D1416071
:10562000704730B50346086BCC8F08E0C5689D42D3
:1056300002D10361C26104E02030651EACB2002CCF
:10564000F4DC00BF30BD70B506460C46154694F834
:10565000360008283DD2DFE800F0040508090607F7
:10566000222300BF00BF00BF34E000BF94F8340025
:10567000032804D12A4621463046FFF7D2FF25648D
:105680002046FFF796FE2046FFF72AFF002034341D
:10569000A07002206070002004F834091AE000BFF6
:1056A00094F83400032804D12A4621463046FFF7F7
:1056B000B8FF2564204601F0D9FD2046FFF779FEAA
:1056C00004203434A07002206070002004F83409F3
:1056D00000E000BF00BF70BDF0B50446059E086B3A
:1056E000CD8F0AE0C768A74204D1046142610383F9
:1056F000C66104E020306F1EBDB2002DF2DC00BF99
:10570000F0BD2DE9F84306460C4617469846089D1D
:1057100094F8360008284AD2DFE800F004050809AA
:105720000607282900BF00BF00BF41E000BF94F872
:105730003400032807D143463A46214630460095B7
:10574000FFF7CAFF00E0256436B12046FFF731FEBF
:1057500021463046FFF71DFF2046FFF7C1FE00201F
:105760003434A070607004F8340921E000BF94F86C
:105770003400032807D143463A4621463046009577
:10578000FFF7AAFF00E02564204601F06FFD36B167
:105790002046FFF70EFE21463046FFF7FAFE0420B2
:1057A0003434A0700020607004F8340900E000BFB9
:1057B00000BFBDE8F88310B5002400BF02F010FB65
:1057C000044600BF0020394908703948394908604B
:1057D00039480068401C384908604FF0805037490C
:1057E000086000BF204602F0FFFA00BF10BD70B590
:1057F0000546002632480078012800D070BD00BF61
:1058000000BF02F0EDFA064600BF00BF2C683CB9AD
:1058100000BF00BF304602F0E7FA00BF00BFEDE76F
:105820002848844207D100BF00BF304602F0DCFAAE
:1058300000BF00BFE2E7A06D10B1A06D401EA065E3
:10584000A06D38B100BF00BF304602F0CDFA00BFF6
:1058500000BFD3E72889022807DA00BF00BF30461F
:1058600002F0C2FA00BF00BFC8E71748007800285E
:1058700007DD00BF00BF304602F0B6FA00BF00BF30
:10588000BCE72846FFF7C5FB2C68606D18B90F48C8
:105890000068A06501E0606DA06500BF00BF3046F4
:1058A00002F0A2FA00BF00BF00BFA7E71D02002060
:1058B0008C180020580200204002002004ED00E077
:1058C00024020020141800201F02002020020020C3
:1058D00019481A481A481B481B481C481C481D48B0
:1058E0001D481E481E481F481F4820482048214880
:1058F0002148224822482348234824482448254850
:10590000254826482648274827482848284829481F
:1059100029482A482A482B482B482C482C482D48EF
:105920002D482E482E482F482F48304830483148BF
:10593000314800BF7047000014B400087CB500086F
:1059400016B4000817B4000818B400081CB4000806
:1059500020B400081DB4000850B4000852B4000878
:1059600054B4000874B4000876B4000878B4000891
:1059700080B40008ACB40008B2B40008B3B40008A6
:10598000B4B40008B6B40008B8B40008BAB400084B
:10599000BCB40008BEB40008C0B40008F0B40008ED
:1059A000F6B40008F8B4000820B5000826B50008D1
:1059B00028B500082CB500082DB500082EB5000844
:1059C0002FB5000830B5000831B5000832B5000821
:1059D00033B5000834B5000836B5000837B50008FF
:1059E00038B500083AB500083CB500083DB50008D8
:1059F00040B5000874B500087AB500082DE9F84FE5
:105A000004460D4616461F46DDE90BABDDF828902F
:105A1000DDF834800020009000BF00BF02F0E0F904
:105A2000009000BF00BFB0480088B0490988884294
:105A30003BDAAD480088401CAB490880AC48008880
:105A40000988884203DAA8480088A9490880A9483B
:105A500000680460A74800688560A6480068C660C2
:105A6000A44800680782A3480068C0F81490A148C1
:105A70000068A0F818A09F480068C0F81CB09D48B6
:105A8000006840689B49086001209B4908819B4849
:105A900008604860002000F0B7FA994800789949FA
:105AA00008700020A8F8000008E097480088401C13
:105AB0009549088044F25360A8F8000000BF00BF79
:105AC000009802F091F900BF00BFBDE8F88F2DE902
:105AD000F84F4FF0000B00BF00BF02F081F9834682
